:020000040800F2
:100000004033002041020008490200084B0200086A
:100010004D0200084F0200085102000800000000D5
:100020000000000000000000000000005302000873
:10003000550200080000000057020008590200089D
:100040005B0200085B0200085B0200085B0200081C
:100050005B0200085B0200085B0200085B0200080C
:100060005B0200085B0200085B0200085B020008FC
:100070005B0200085B0200085B0200085B020008EC
:100080005B0200085B020008E91500085B0200083B
:100090005B0200085B0200085B0200085B020008CC
:1000A0005B0200085B0200085B0200085B020008BC
:1000B000793100085B020008613300085B02000828
:1000C0005B0200085B0200085B0200085B0200089C
:1000D0005B020008BD350008053700088D370008B1
:1000E0005B0200085B0200085B0200085B0200087C
:1000F0005B0200085B0200085B0200085B0200086C
:100100005B0200085B0200085B0200085B0200085B
:100110005B0200085B0200085B0200085B0200084B
:100120005B0200085B0200085B0200085B0200083B
:1001300000F002F800F074F80AA090E8000C824485
:100140008344AAF10107DA4501D100F069F8AFF262
:10015000090EBAE80F0013F0010F18BFFB1A43F0A5
:1001600001031847805A0000A05A000010F8013B14
:100170000A4413F0030408BF10F8014B1D1108BF17
:1001800010F8015B641E05D010F8016B641E01F8C5
:10019000016BF9D1002D15D010F8014B03F00C03C1
:1001A0000C2BA1EB04040ABF10F8013BA4EB831451
:1001B000A4EB032405F1010314F8016B5B1E01F8A5
:1001C000016BF9D5914238BF10F8013BD1D370478C
:1001D0000023002400250026103A28BF78C1FBD850
:1001E000520728BF30C148BF0B607047662905F031
:1001F0007680642900F0B880632900F0AE8473290A
:1002000000F0B384002070471FB500F0C5FC040067
:100210000020002104F06AFDE0601FBD10B510BD94
:1002200000F0BAFD1146FFF7EFFF03F0FFFE00F00C
:10023000D8FD03B4FFF7F2FF03BC03F0AEFD0000EE
:100240000948804709480047FEE7FEE7FEE7FEE76A
:10025000FEE7FEE7FEE7FEE7FEE7FEE704480549A6
:10026000054A064B704700001931000831010008AB
:10027000402D002040330020402F0020402F002040
:10028000704700000FB4044910B503AA029800F0AB
:1002900071FC10BC5DF814FB4C0000200FB41CB5C1
:1002A000084B06AA7B4469460090059800F033FC91
:1002B00004460020694600F041FC20461CBC5DF865
:1002C00014FB00009508000070B5044685690068BD
:1002D000C10601D5302600E02026C00707D070BD3A
:1002E000D4E9012130469047206A401C20626D1EEF
:1002F000F6D570BD70B5044685690078C00707D192
:1003000070BDD4E9012120209047206A401C206262
:100310006D1EF6D570BD70B50C460546012A05D098
:100320002878800600D5EA69002302E0012305E071
:100330005B1C934202D2E05C0028F9D1A869E61860
:10034000C01AA861286A184428622846FFF7BCFF33
:1003500004E0D5E9012114F8010B9047B442F8D329
:100360002846FFF7C7FF70BD2DE9F041064600247F
:1003700010687529314616A510D0AFF3008000280B
:1003800002DA404213A507E031688A0701D512A5B9
:1003900002E0490704D511A5012401E0AFF3008074
:1003A00000210A2206F1240709E0B0FBF2FCB0FBB1
:1003B000F2F302FB1C00303078541846491C002828
:1003C000F3D123462A463046BDE8F04100F037B964
:1003D000000000002D0000002B00000020000000A5
:1003E0002DE9F05F894604464FF0000ADFF874B14A
:1003F000FB44C0F820A02046E1688847002874D05C
:10040000252806D0D4E901219047206A401C2062AB
:10041000F1E700265F462046E16888472028054628
:1004200007DB312D05D2781910F8200C08B10643EE
:10043000F1E7B00701D526F00406C4F81CA0002798
:10044000C4F818A02A2D09D0284603F09FFC38B321
:1004500004EB8708303DC8F8185019E059F8041B20
:10046000204604EB87029161E1688847012F054629
:1004700018D1E069002820DA26F020061DE0D8F81F
:10048000180000EB800005EB40003038C8F8180079
:100490002046E1688847054603F078FC0028EED145
:1004A000012F0AD02E2D08D12046E16888477F1CF5
:1004B0000546022F46F02006C4DBA069002803DAB7
:1004C000404246F00106A061F00701D026F0100678
:1004D0006C2D0BD0682D09D04C2D39D06A2D35D01C
:1004E000742D35D07A2D33D016E038E0E1682F46F0
:1004F00020468847B842054609D16C2F26D04FF4D4
:100500008060E168064320468847054604E06C2F7A
:100510001AD04FF4807006430DB3A5F1410019289D
:1005200002D8203546F400664A4629462046266011
:100530004E46FFF75BFE80B101280BD0F61D26F07A
:10054000070000F1080956E74020E4E78020D8E7DB
:100550000020D6E706F104094DE7284652E7206A55
:10056000BDE8F09F0657000030B505460B462A4609
:1005700013F8014B12F8010B08B1A042F8D01CB1DE
:10058000002802D06D1CF1E7284630BD421E12F84B
:10059000013F002BFBD111F8013B002B02F8013B7E
:1005A000F9D170474FF000020429C0F0128010F01A
:1005B000030C00F01B80CCF1040CBCF1020F18BF3F
:1005C00000F8012BA8BF20F8022BA1EB0C0100F0D2
:1005D0000DB85FEAC17C24BF00F8012B00F8012BA5
:1005E00048BF00F8012B70474FF0000200B51346DA
:1005F00094469646203922BFA0E80C50A0E80C5043
:10060000B1F12001BFF4F7AF090728BFA0E80C50F3
:1006100048BF0CC05DF804EB890028BF40F8042BEC
:1006200008BF704748BF20F8022B11F0804F18BF59
:1006300000F8012B704770477047704770472DE9ED
:10064000F0470D4699469246044600F12408016899
:10065000880604D5E06921F01001216000E0012046
:10066000A84201DD471B00E00027A1697A1902EBCF
:100670000900081AA0612078C00602D42046FFF7BE
:1006800023FE002608E0D4E901211AF8060090476D
:10069000206A401C761C20624E45F4DB2078C006A0
:1006A0000AD52046FFF710FE06E0D4E901213020EC
:1006B0009047206A401C2062381EA7F10107F4DC35
:1006C00007E0D4E9012118F805009047206A401C92
:1006D0002062281EA5F10105F3DC2046FFF70AFE83
:1006E0002078000602D50220BDE8F0870120FBE754
:1006F00070472DE9FF4F0C461E464FF0FF378BB079
:10070000D2E90001DDF860800A908A46C1F30A55FB
:1007100005B93D46002108464FF00000BAF1000F30
:1007200000F4400005DA00EB80004FF4400101EADC
:1007300050004FEA9059B9F1010F00DDB9460A980F
:1007400050EA4A000ED044F61050A5F2FF3545435A
:100750002F14B8F1000F1ED07542291E1EDDC9F1FD
:1007600000021CE0B8F1010F4FF0000001D0302171
:1007700003E0F24305E02154401CB042FBDB30466D
:100780000022002121540B99C1F80880C1E9002002
:100790000FB0BDE8F08FBD1B6D1CDEE74A4600DAE6
:1007A000694206A800F082FA06AB93E8070003ABA3
:1007B00083E8070050460A9900F05AFB8DE80700CD
:1007C000A0F500501F3800900398002D09DD42F27B
:1007D0001F014A46084403A90390684600F0B9FD8A
:1007E00008E0A0F500504A461F3803A90390684668
:1007F00000F0C3FD8DE807000004000C03D04FF0AB
:10080000FF30410800E01046B8F1000F03D000228D
:10081000009215461EE0751E05D400F0C1F9303275
:1008200062556D1EF9D5B3460122084302D000225D
:100830007F1C04E02078302801D100227F1E002A8E
:10084000099786D01DE0112D07DA00F0A9F93032A2
:1008500062556D1C50EA0102F5D1084302D00098A0
:10086000C8B10EE00021681E05E0235C625C6354A1
:100870002254401E491C8142F7DBAB46A81B401E98
:100880000990002004F80B000B98099AC0F8088022
:10089000C0E9002B7CE711264FF0000859E72DE94D
:1008A000F04F88460446D21D22F0070191B0D1E9ED
:1008B0000001CDE90A0103F055FA02460B98C00F7A
:1008C00001D02D2007E02068810701D52B2002E010
:1008D000202101EAC000032A099001D0072A05DB84
:1008E00003464146204600F0A1F90BE1207880063E
:1008F00001D5E06900E00620B8F1650F814606D019
:10090000B8F1660F18D0B8F1670F70D131E0002050
:10091000B9F1110F009001DB112301E009F101038E
:100920000AAA01A90CA8FFF7E4FEDDE90C70002675
:1009300009F10105834647E001204B4600904FF046
:1009400000470AAA01A90CA8FFF7D3FEDDE90DB004
:100950000C995D46002610B909F101000D18B9EB9C
:10096000050003D4C0F1FF3609F10105A5EB09002C
:100970002BE0B9F1010F01DA4FF001090020B9F1C4
:10098000110F0090484601DD112300E003460AAA3A
:1009900001A90CA8FFF7ADFEDDE90C704D4600265D
:1009A0008346207800070AD4AB4500DA5D4601A8EB
:1009B000012D04DD411911F8011C302907D04F45E4
:1009C00002DA17F1040F04DA012082460FE06D1EEF
:1009D000EEE7002F02DCED1B3E4403E0781CA8424A
:1009E00000DD7D1CB81B00F1010A4FF000472078A4
:1009F000000703D4AA4501DB4FF0FF3A0021B7F10D
:100A0000004F0DF143088DF8431024D002202B2312
:100A1000002F01DA7F422D230A21021EA0F10100DE
:100A200000DC5FB197FBF1FC97FBF1F201FB1C7C52
:100A300017460CF1300C08F801CDEEE7A8F10100E3
:100A400003702188090501D5452100E06521A0F149
:100A5000010800F8011C09980FA9A1EB0807FF1D68
:100A600000B10120411901EBEA70A1693844081A6C
:100A7000401EA0612078C00602D42046FFF724FC67
:100A8000099828B1D4E901219047206A401C2062CE
:100A90002078C00622D52046FFF716FC1EE0002E67
:100AA00004DBB34502DD01A8805D00E03020D4E91D
:100AB00001219047206A401C2062761CAAF10100A7
:100AC0005FEA000A0AD100F067F8C0680168405C7C
:100AD000D4E901219047206A401C2062281EA5F11C
:100AE0000105DCDC07E0D4E9012118F8010B90478F
:100AF000206A401C2062381EA7F10107F3DC204663
:100B0000FFF7F8FB032011B043E6000001694A1C1F
:100B100002610878704700B58FB0CDE9013100213E
:100B2000059105497944CDE9031011466846FFF760
:100B300057FC0FB000BD0000E5FFFFFF0A6802F898
:100B4000010B0A60704710B5436913B1AFF3008021
:100B500001E0FFF7E0FB012010BD127800F1240155
:100B60000A7000224A700122EDE711684FF0FF324F
:100B7000E9E70000074B70B50D467B44FFF7CBFF5C
:100B80000446284600F000F910B14FF0FF3070BD68
:100B9000204670BD5333000000487047002D0020F0
:100BA00030B5B0F10A024FEA900E71F100034EEA3F
:100BB000817EB0EB0E0061EB91014FEA101E4EEA10
:100BC000017E10EB0E0041EB11114FEA102E4EEAA0
:100BD000016E10EB0E0041EB11214FEA104E4EEA70
:100BE000014E10EB0E0041EB1141401841F10001A4
:100BF0004FEAD00040EA41704FEAD10110EB800586
:100C00004FEA810444EA907444EB01046D1944EB0B
:100C10000404521BA3414FF0000348BF0A3200D521
:100C200030BD401C41F1000130BD00002DE9F04114
:100C30001F46044603260168072A01F4006004DB0E
:100C400008B116A505E016A503E008B115A500E05A
:100C500015A521F010002060A069C01EA0610FB191
:100C6000401EA0612046FFF72FFB4FB1D4E90121C0
:100C700038469047206A401C2062C01C206206E073
:100C8000206AFAE7D4E9012115F8010B9047761E96
:100C9000F8D22046FFF72EFBBDE8F0814E414E0012
:100CA0006E616E00494E4600696E66002DE9F047A0
:100CB000814616468AB0334878440DC88DE80D0049
:100CC00030487844801C03AC0DC884E80D0041F620
:100CD0009B300844372190FBF1F290FBF1F5A5F130
:100CE000800501FB12041B3C02D56442012000E098
:100CF0000020DFF890A080460027FA44AAF1BE0A3F
:100D00000DE0E00709D03246684607EB47010AEBE1
:100D1000810100F032FB8DE8070064107F1C002C7D
:100D2000EFD1184F7F44AC3F18E0E80714D007EB31
:100D300004100DF1180A90E80E008AE80E00C06851
:100D4000F04201D198190890324606A903A800F094
:100D500014FB03AB83E807006D10641C002DE4D185
:100D600032466946B8F1000F03A802D000F0F1FA4C
:100D700001E000F002FBC9E90001C9F808200AB04F
:100D8000BDE8F087CC4E0000007B00F0800070478B
:100D900000487047E02C00207546FFF7F9FFAE468B
:100DA00005006946534620F00700854618B020B577
:100DB000FFF754FABDE820404FF000064FF000075F
:100DC0004FF000084FF0000B21F00701AC46ACE8F3
:100DD000C009ACE8C009ACE8C009ACE8C0098D4660
:100DE00070470446AFF300802046FFF722FA000068
:100DF0004FF0013C50F8042B51F8043B9A4221D1AA
:100E0000A2EB0C03934313EACC1317D150F8042B35
:100E100051F8043B9A4215D1A2EB0C03934313EA19
:100E2000CC130BD150F8042B51F8043B9A4209D152
:100E3000A2EB0C03934313EACC13DBD04FF000007A
:100E4000704700BFD01A01BAB1FA81F101F0180160
:100E500022FA01F0CB40C1F12001DBB2C0B2C01ACE
:100E60002CFA01F3D11A914311EAC311E6D170476C
:100E70005FEA400C08BF91F0000F4FEA8C234FEA65
:100E8000C12243EA51514FEA1C5018BF00F5F0400F
:100E90004FEA300018BF41F000415FEA6C5C00F09F
:100EA0002980BCF1FF3F08BF40F080407047130C21
:100EB00006BF12044FF0100C4FF0000C130E04BFCD
:100EC00012020CF1080C130F04BF12010CF1040CF8
:100ED000930F04BF92000CF1020CD30F04BF520019
:100EE0000CF1010C11464FF00002A0F11F00A0EB25
:100EF0000C00704711F0004F08BF704731F00041FF
:100F00003FF4D5AF0B0C06BF09044FF0100C4FF0A7
:100F1000000C0B0E04BF09020CF1080C0B0F04BFF0
:100F200009010CF1040C8B0F04BF89000CF1020CB9
:100F3000CB0F04BF49000CF1010CCCF12003A0EB56
:100F40000C0022FA03F302FA0CF241EA030100F169
:100F50000100704720F07F4C80EA030023F07F47B8
:100F6000ACEB070303F57C5300F0004003F1FF03F3
:100F70002DE980494FEA154B09B44FEA144325EA9D
:100F80000B4E24EA03480FF2042606EB1327490808
:100F90003E785FEA320203FB0667C7F5000707FBEE
:100FA00006F64FEA54374FEAD64606F1020607FB2B
:100FB000066CCCF1005C4FEA1C472CEA074C07FB9F
:100FC00006F40CFB06F504EB15464FEA961634BF03
:100FD00000204FF000404FEAD13706FB07FC4FEAF4
:100FE0001C4C0CFB0BF7D21B03FB0CF761EB07014E
:100FF0000CFB0EF7B0EB074072EB17420CFB08F747
:1010000034BFA2EB0742B2EB074261EB17414FEA54
:101010000C444FEA910706FB07FC4FEA1C4C0CFB03
:101020000BF7B0EBC74072EB573203FB0CF734BF42
:10103000A2EBC742B2EBC74261EB57310CFB0EF794
:10104000B0EBC70072EB57720CFB08F734BFA2EB92
:10105000C702B2EBC70261EB5771039F4FEA816190
:1010600041EA921104EBCC044FEAD1374FEA826295
:1010700006FB07FC42EA90124FEA80604FEA1C4CE4
:101080000CFB0BF7D21B03FB0CF761EB07010CFB0E
:101090000EF7B0EB074072EB17420CFB08F734BFBA
:1010A000A2EB0742B2EB074261EB17414FEA8C55C6
:1010B0004FEA910704EB9C2406FB07FC4FEA1C4C0B
:1010C0000CFB0BF7B0EBC74072EB573203FB0CF78E
:1010D00034BFA2EBC742B2EBC74261EB57310CFB06
:1010E0000EF7B0EBC70072EB57720CFB08F734BF7A
:1010F000A2EBC702B2EBC70261EB577115EB4C25AF
:101100004FEA816141EA92114FEA82624FEAD13798
:1011100042EA901206FB07FC44F100044FEA8060AB
:101120004FEA1C4C0CFB0BF7D21B03FB0CF761EBDB
:1011300007010CFB0EF7B0EB074072EB17420CFBFC
:1011400008F734BFA2EB0742B2EB074261EB17414D
:1011500015EB1C154FEA813141EA92414FEA823288
:1011600042EA90424FEA80304FEA0C7644F10004A4
:1011700048EA03434EEA0B484FF0000EB2EB080C6E
:1011800071EB030724BF624639464EEB0E0E4FF05B
:10119000000B0018524149414BEB0B0BB2EB080C12
:1011A00071EB03077BF1000B24BF624639464EEB1F
:1011B0000E0E4FF0000B0018524149414BEB0B0B48
:1011C000B2EB080C71EB03077BF1000B24BF624606
:1011D00039464EEB0E0E51EA020718BF46F00106E3
:1011E00016EB0E7655F1000254F1000103D5BDE86F
:1011F0008901BDE80088BDE88901BDE80048B6194D
:10120000524141EB0101A3F10103704780807F7ED1
:101210007D7C7B7A7978777676757473727171706C
:101220006F6E6E6D6C6C6B6A6A696868676666651E
:101230006464636362616160605F5F5E5E5D5D5CAC
:101240005C5B5B5A5A59595858575756565555551D
:101250005454535352525251515050504F4F4F4E7D
:101260004E4D4D4D4C4C4C4B4B4B4A4A4A494949CB
:10127000484848474747474646464545454444440D
:10128000444343434342424242414141002B26D41E
:10129000770021D01CB54FEA370703B44FF0100098
:1012A0004FF010014FF000000FBCBDE810400BF1F3
:1012B000010BBBF1010F08BF5FEA170722BF12F154
:1012C000010211F101014FF0004143F1000300F070
:1012D000004043EA00007047F9D35708DAE746EACE
:1012E000064613F1400F4FEA16461FDD13F1200F9B
:1012F000DFBF16430A46002120335B42C8D0C3F14A
:10130000200746EA064602FA07F74FEA164646EA7B
:101310000706C3F1200722FA03F201FA07F721FAC0
:1013200003F14FF0000342EA0702B1E746EA020682
:1013300046EA06464FEA164646EA0106BCBF46EABA
:101340000646360C4FF000034FF000024FF000014C
:101350009EE72DE9C048934630B491E8380007C8AD
:1013600031EA400C48BF34EA430C03D5FFF7F2FDE5
:10137000FFF78CFFF0BCBDE800882DE9C04893461C
:1013800030B491E8380007C810F0804F08BF13F060
:10139000804F03D100F005F8FFF778FFF0BCBDE8FF
:1013A000008820F07F4780EA030023F07F4C07EBA2
:1013B0000C03A3F57C5300F00040A3F1FE0392F070
:1013C000000F00F0B38095F0000F00F077802DE95A
:1013D00001494FEA11404FEA144621EA004800FB58
:1013E00006FC24EA064708FB06F607FB08F800FBA4
:1013F00007F718EB06484CEB164C4FEA124B18EB6C
:1014000007484FEA15464CEB174022EA0B4E0BFB00
:1014100006FC25EA06470EFB06F607FB0EFE0BFB55
:1014200007F71EEB064E4CEB164C4FF000061EEB7A
:10143000074E4CEB174B18EB0B0840F1000018EB74
:101440000E0B58EB000840F100008F1A4FF000011E
:101450003CBFC943661B14BFB5EB040C00213CBF65
:10146000C943F61B4FEA17444EEA8E0E27EA04459D
:101470004FEA1C4704FB07622CEA074C05FB07F701
:101480000CFB05F604FB0CFC16EB074642EB17427F
:1014900016EB0C4642EB1C421BEB060658EB020215
:1014A000414146EA9E0601D5BDE80189B61952417F
:1014B00041EB0101A3F10103BDE801894FEA1445A5
:1014C0004FEA114724EA054621EA074C05FB07F4D9
:1014D00006FB07F70CFB06F105FB0CFC11EB0741C3
:1014E00044EB17444FEA124711EB0C4144EB1C4408
:1014F00022EA074C05FB07F206FB07F70CFB06F692
:1015000005FB0CFC16EB074642EB174216EB0C46AC
:1015100042EB1C456A1854F1000148BF7047B619E8
:10152000524141EB0101A3F10103704795F0000F17
:1015300037D04FEA11424FEA144721EA024624EA23
:10154000074C02FB07F106FB07F70CFB06F402FB56
:101550000CFC14EB074441EB17414FEA154714EB21
:101560000C4441EB1C4125EA074C02FB07F506FB46
:1015700007F70CFB06F602FB0CFC16EB074645EBE7
:10158000174516EB0C4645EB1C42121951F10001B0
:1015900048BF7047B619524141EB0101A3F1010365
:1015A00070474FEA14454FEA114724EA054621EAFD
:1015B000074C05FB07F106FB07F70CFB06F24FF0A3
:1015C000000605FB0CFC12EB074241EB174112EB46
:1015D0000C4251EB1C4148BF7047921841EB01018E
:1015E000A3F101037047000010B54FF408710848DB
:1015F00000F030F8012804D1054800F027F805492B
:1016000008804FF40871024800F006F810BD000091
:10161000002401405A00002000220A12D343036034
:10162000704721B1826842F00102826003E0826863
:1016300022F0010282607047014600208A6802F0B1
:1016400004020AB1012000E0002070470146C86C86
:1016500080B2704770B502460020002300240B12B0
:101660005568CEB205EA060415681D4015B10CB1E7
:10167000012000E0002070BD014600208A6802F0D1
:1016800008020AB1012000E00020704710B50023D5
:10169000CBB21AB144681C43446002E044689C43E6
:1016A000446010BD30B502460020002350680F4C46
:1016B00020400D790C6844EA05242043506090686E
:1016C0000B4C2040D1E902542C434D7944EA4504A7
:1016D00020439060D06A20F470000C7C641EE4B259
:1016E000234340EA0350D06230BD0000FFFEF0FF0C
:1016F000FDF7F1FFF0B504460D4600200021092D4D
:1017000011DDE068A5F10A0606EB4607072606FA92
:1017100007F18843A5F10A0606EB460603FA06F12F
:101720000843E0600CE0206905EB4507072606FA50
:1017300007F1884305EB450603FA06F108432061EB
:10174000072A0FDA606B561E06EB86071F2606FA7D
:1017500007F18843561E06EB860605FA06F1084394
:10176000606322E00D2A0FDA206BD61F06EB860796
:101770001F2606FA07F18843D61F06EB860605FAF0
:1017800006F10843206310E0E06AA2F10D0606EBC3
:1017900086071F2606FA07F18843A2F10D0606EB1D
:1017A000860605FA06F10843E062F0BD816841F063
:1017B00008018160704721B1826842F4A002826012
:1017C00003E0826822F4A00282607047816841F0E1
:1017D000040181607047000008B50121042001F078
:1017E00059FA0220ADF8000000208DF80300694688
:1017F000014800F023F908BD0008014010B5FFF7CB
:10180000EBFF00F001F810BD00B585B001214802E2
:1018100001F040FA002000908DF8040001208DF8BE
:1018200005004FF4602002900020039001208DF805
:10183000100069461748FFF735FF4FF4404001F0AC
:10184000EDF90523012211461248FFF753FF01224B
:101850004FF408710F48FFF719FF01210D48FFF7FA
:10186000E0FE0C48FFF7A2FF00BF0A48FFF704FFA5
:101870000028FAD10748FFF7A9FF00BF0548FFF786
:10188000DBFE0028FAD101210248FFF794FF05B0E2
:1018900000BD00000024014021B1026842F00102B5
:1018A000026004E002684FF6FE731A40026070475F
:1018B00001684FF6FE721140016000210160416035
:1018C0008160C1604B49884208D14A49083949685A
:1018D00041F00F01474A083A51608AE04549143106
:1018E000884208D143490839496841F0F001414A2A
:1018F000083A51607DE03F492831884208D13D498E
:101900000839496841F470613A4A083A516070E018
:1019100038493C31884208D136490839496841F490
:101920007041344A083A516063E03249503188428C
:1019300008D130490839496841F470212D4A083AE4
:10194000516056E02B496431884208D12949083951
:10195000496841F47001274A083A516049E0254935
:101960007831884208D123490839496841F07061CB
:10197000204A083A51603CE01F49884206D1011FC5
:10198000096841F00F01021F116032E01A49143159
:10199000884208D11849091F096841F0F001164A28
:1019A000121F116025E014492831884208D11249DC
:1019B000091F096841F470610F4A121F116018E095
:1019C0000D493C31884208D10B49091F096841F48F
:1019D0007041094A121F11600BE0074950318842DB
:1019E00007D10549091F096841F47021024A121FF5
:1019F00011607047080002400804024010B5002240
:101A0000026847F6F0739A430C6A8B6823430C69AB
:101A100023434C6923438C692343CC6923434C6A99
:101A200023438C6A23431A430260CB6843600B68EC
:101A300083604B68C36010BD416070472DE9F04181
:101A4000024600250026002000230024002791F8EC
:101A500003C00CF00F0591F803C00CF0100CBCF1A2
:101A6000000F03D091F802C04CEA050591F800C0C0
:101A7000BCF1000F31D0146800202BE04FF0010CB6
:101A80000CFA00F3B1F800C00CEA03069E4220D124
:101A900083004FF00F0C0CFA03F7BC4305FA03FC6C
:101AA0004CEA040491F803C0BCF1280F06D14FF0B2
:101AB000010C0CFA00FCC2F814C00AE091F803C053
:101AC000BCF1480F05D14FF0010C0CFA00FCC2F834
:101AD00010C0401C0828D1D31460B1F800C0BCF17C
:101AE000FF0F34DD546800202EE000F1080C4FF0A9
:101AF000010808FA0CF3B1F800C00CEA03069E4294
:101B000021D183004FF00F0C0CFA03F7BC4305FA08
:101B100003FC4CEA040491F803C0BCF1280F05D182
:101B200000F1080C08FA0CF8C2F8148091F803C010
:101B3000BCF1480F07D100F1080C4FF0010808FA7A
:101B40000CF8C2F81080401C0828CED35460BDE8C1
:101B5000F0810246002093680B400BB1012000E0A9
:101B600000207047416170470161704710B504461D
:101B700026A12A4802F0ACF801202949087000BFCC
:101B8000274800780028FBD101202549087000BFB4
:101B9000234800780028FBD12146204802F098F81D
:101BA00001201F49087000BF1D4800780028FBD1A4
:101BB00001201B49087000BF194800780028FBD19C
:101BC0001A21164801F049FF00201649087014E058
:101BD00015A0FEF757FB01201149087000BF1048FF
:101BE00000780028FBD10F480078401CC0B20D4996
:101BF00008700A2801D1002010BD0A220EA1104849
:101C000002F03CF90028E3D00120F5E741542B43D2
:101C1000495053454E440D0A000000000048004062
:101C2000281F0020301F002053656E6420657272EB
:101C30006F720D0A0000000053454E44204F4B00C8
:101C4000D828002070B504460D462946204600F0ED
:101C50000FFC2946204600F07BFB2946204600F079
:101C6000ABFB2946204600F099FC2946204600F0AF
:101C7000A5FD70BD10B5012401214FF47A7001F06B
:101C80009FFF002826D014A0FEF7FCFA13E04FF4C3
:101C9000165001F0C5FC4FF4164001F057FF4FF409
:101CA000164001F0BDFC01221049114801F0B4FFBB
:101CB00001F010FF044601214FF47A7001F080FF1B
:101CC00008B1002CE3D10BA0FEF7DCFA4FF4FA7058
:101CD00002F088F810BD00004E454F2D364D2053C0
:101CE000657474696E672E2E2E0D0A00A0860100A1
:101CF00040420F004E454F2D364D20536574204411
:101D00006F6E65210D0A000070B51648008800F45A
:101D1000004020B313480088C0F30E04002012498D
:101D200008800CE0114810490988405C10490E4AAF
:101D3000128888540C480088401C0B4908800A48C7
:101D40000088A042EEDB0020064908800849064AC8
:101D5000128888540748FFF775FF00F00DF8681CDB
:101D600085B270BD321F00201E000020C029002057
:101D7000FA1F00205C1F0020F8B564A0FEF782FA6D
:101D80006549D1F8490003F055F9074663493846DB
:101D900003F056F80746044602F0C4FF05465E48C5
:101DA00090F84D002A460B465DA100906248FEF770
:101DB00075FA614961A0FEF765FA5749486C03F06E
:101DC00039F907465549384603F03AF807460446BC
:101DD00002F0A8FF0546504890F848002A460B46F6
:101DE00058A100905448FEF759FA534953A0FEF702
:101DF00049FA4949D1F8630003F004F90746574905
:101E0000384603F01DF80746044602F08BFF0546EE
:101E10002A460B4652A14848FEF740FA464947A0D9
:101E2000FEF730FA3C49B1F8670003F003F90746C2
:101E30005049384603F004F80746044602F072FFA2
:101E400005462A460B464CA13B48FEF727FA3A497D
:101E50003AA0FEF717FA304890F85C0003280DDC32
:101E60002D4890F85C00494951F8202048A132489B
:101E7000FEF714FA304931A0FEF704FA264890F82C
:101E80004F2046A12C48FEF709FA2B492BA0FEF75C
:101E9000F9F921480078642190FBF1F201FB12046A
:101EA000224644A12448FEF7F9F9234923A0FEF76E
:101EB000E9F9214921A0FEF7E5F9174890F840001B
:101EC0000090154890F83F30B0F83D203FA11A48E7
:101ED000FEF7E4F91048B0F83D1043A0FEF7D2F940
:101EE000154916A0FEF7CEF90B4890F84300009074
:101EF000094890F8423090F841203EA10E48FEF784
:101F0000CDF90D490DA0FEF7BDF9F8BD0D0A0D0A7A
:101F10000A0A0A0A000000005C1F00200050C347A4
:101F20004C6F6E6769747564653A252E3566202599
:101F300031632020200D0A00C81F00202573090DE1
:101F40000A0000004C617469747564653A252E3589
:101F50006620253163202020000000000000204181
:101F6000416C7469747564653A252E31666D202064
:101F70002020200000007A4453706565643A252EC5
:101F800033666B6D2F682020202020000400002085
:101F9000466978204D6F64653A25730056616C6917
:101FA0006420736174656C6C6974653A25303264C1
:101FB0000000000056697369626C65207361746586
:101FC0006C6C6974653A25303264000055544320C6
:101FD000446174653A253034642F253032642F25EE
:101FE000303264202020000079656172323A256425
:101FF0000D0A00005554432054696D653A2530326E
:10200000643A253032643A253032642020200000C2
:1020100008B50121042000F03DFE4FF4C050ADF89A
:10202000000003208DF8020010208DF8030069469F
:102030000148FFF703FD08BD0008014010B500F09E
:10204000C5FE01200A4908600A49C1F8AC01022016
:1020500001F0EEFE002006490860022001F0E8FED3
:1020600000200449C1F8AC01022001F0E1FE10BDDE
:10207000B00121420000214210B50120084908604A
:1020800000200849C1F8B001022001F0D1FE012072
:102090000349091D0860022001F0CAFE10BD0000BE
:1020A000AC0121420000214210B5002400F07CFE6A
:1020B00001200D490860022001F0BAFE06E0641C10
:1020C000FA2C03DDFFF7D8FF012010BD4FF480513B
:1020D0000648FFF73EFD0028F1D1034908600220C1
:1020E00001F0A6FE0020F0E7AC012142000801400B
:1020F00070B5044600F06AFE00251FE0002011497B
:102100000860022001F094FE04F0800020B101205C
:102110000C49091D086003E000200A49091D0860F8
:10212000012008490860022001F082FE00200649D3
:10213000C1F8AC016006040E681CC5B2082DDDDBD9
:1021400070BD0000AC0121420000214208B5012110
:102150000C2000F09FFD48208DF80300F020ADF822
:10216000000069461148FFF769FC10208DF8030054
:102170004FF47070ADF8000003208DF8020069463E
:102180000B48FFF75BFC40210948FFF7EDFC80217D
:102190000748FFF7E9FC4FF480710548FFF7E4FCBE
:1021A0004FF400710248FFF7DFFC08BD0008014052
:1021B000000C014010B526243C483D4A127830F806
:1021C00012103C48FFF7CEFC10213B4801F01AFFEB
:1021D00088B93748007830B1012806D0022806D0E7
:1021E00003284DD105E0442010BD4320FCE74220E8
:1021F000FAE74120F8E720212F4801F003FF88B9D2
:102200002B48007830B1012806D0022806D00328D8
:1022100036D105E02320E7E73920E5E73620E3E77C
:102220003320E1E74021244801F0ECFE88B9204842
:10223000007830B1012806D0022806D003281FD12B
:1022400005E03020D0E73820CEE73520CCE732203B
:10225000CAE78021184801F0D5FE88B914480078F3
:1022600030B1012806D0022806D0032808D105E0A5
:102270002A20B9E73720B7E73420B5E73120B3E7A4
:102280000A480B4A127830F812100A48FFF76CFC23
:1022900007480078401C0649087008460078042862
:1022A00001DB0020087020469EE700001C1F002074
:1022B000241F0020000C01400008014008B5012146
:1022C0000C2000F0E7FC4FF48050ADF80000032034
:1022D0008DF8020010208DF8030069460D48FFF7C5
:1022E000ADFB40F20110ADF8000003208DF80200B4
:1022F00010208DF8030069460748FFF79FFB4FF455
:1023000080510448FFF730FC01210348FFF72AFC05
:1023100008BD0000000C01400008014002461346C1
:1023200010E010782A2805D01078202802DB1078D9
:102330007A2801DDFF20704710782C2801D1481E33
:10234000C1B2521C0029ECD1D01AC0B2F3E7000090
:10235000F8B505460F4616A13846FEF705F90646BC
:1023600006213046FFF7DAFF0446FF2C05D030196E
:10237000694600F05AFA85F84E0007213046FFF70B
:10238000CDFF0446FF2C05D03019694600F04DFA08
:1023900085F84F0009213046FFF7C0FF0446FF2CA7
:1023A00005D03019694600F040FAC5F86300F8BD61
:1023B00024475047474100002DE9F8430546884629
:1023C00029A14046FEF7D0F8064602213046FFF725
:1023D000A5FF0446FF2C05D03019694600F025FA08
:1023E00085F85C00002713E0F81CC1B23046FFF707
:1023F00095FF0446FF2C08D03019694600F015FA05
:10240000C1B205F15000C15500E003E0781CC7B22D
:102410000C2FE9DB00BF0F213046FFF77FFF04469A
:10242000FF2C05D03019694600F0FFF9A5F85D00D2
:1024300010213046FFF772FF0446FF2C05D03019FB
:10244000694600F0F2F9A5F85F0011213046FFF768
:1024500065FF0446FF2C05D03019694600F0E5F908
:10246000A5F86100BDE8F8832447504753410000B8
:102470002DE9FC5F07468A464FF00008CDF804A01E
:1024800044A10198FEF770F80646F079303800F064
:10249000FF0B03213046FFF741FF0546FF2D04D017
:1024A0007019694600F0C1F938704FF000096CE00E
:1024B00038A10198FEF758F8064600245CE0042095
:1024C00000EB8400C1B23046FFF728FF0546FF2D20
:1024D00009D07019694600F0A8F9C1B208EB88026A
:1024E000781C815400E049E0052000EB8400C1B273
:1024F0003046FFF713FF0546FF2D0AD070196946D5
:1025000000F093F9C1B208EB8802781C10444170C6
:1025100000E033E0062000EB8400C1B23046FFF754
:10252000FDFE0546FF2D0AD07019694600F07DF9C1
:1025300081B208EB8802781C1044418000E01DE065
:10254000072000EB8400C1B23046FFF7E7FE0546E6
:10255000FF2D0AD07019694600F067F9C1B208EB87
:102560008802781C1044017100E007E008F10100C6
:1025700000F0FF08601CC4B2042CA0DB00BF701C7C
:10258000019009F1010000F0FF09D94590DBBDE899
:10259000FC9F000024475047535600002DE9F04FA0
:1025A00085B00446884682A14046FDF7DDFF074618
:1025B00001213846FFF7B2FE0546FF2D23D07819DA
:1025C00004A900F032F982469DF810100A2000F0AC
:1025D00021F9BAFBF0F642F21070B6FBF0F0C1B28E
:1025E000412001556420B6FBF0F06421B0FBF1F20C
:1025F00001FB1201422001556420B6FBF0F100FB03
:1026000011614320015503213846FFF787FE054637
:10261000FF2D43D0781904A900F007F906469DF86C
:102620001000801CC1B20A2000F0F4F8B6FBF0F0F4
:1026300060649DF81000801CC1B20A2000F0EAF826
:10264000B6FBF0F100FB116A504602F0F3FC814644
:102650009DF81000C0F10500C1B20A2000F0DAF8C0
:10266000009002F0E7FC8346494602F0F7FC824600
:10267000514902F0E5FB052102900A2000F0CAF85A
:10268000616C00FB01FA504602F0D4FC0190029903
:1026900002F074FB039002F095FC6064042138465C
:1026A000FFF73CFE0546FF2D02D0785D84F8480018
:1026B00005213846FFF732FE0546FF2D45D0781933
:1026C00004A900F0B2F806469DF81000801CC1B2C3
:1026D0000A2000F09FF8B6FBF0F044F8490F9DF88F
:1026E0001000801CC1B20A2000F094F8B6FBF0F193
:1026F00000FB116A504602F09DFC81469DF81000D7
:10270000C0F10500C1B20A2000F084F8009002F088
:1027100091FC8346494602F0A1FC8246264902F01C
:102720008FFB052102900A2000F074F8216800FB5D
:1027300001FA504602F07EFC0190029902F01EFB65
:10274000039002F03FFC44F8490906213846FFF7A0
:10275000E5FD0546FF2D02D0785D84F84D00092186
:102760003846FFF7DBFD0546FF2D1ED0781904A97A
:1027700000F05BF8064642F21070B6FBF0F0C1B212
:10278000402001556420B6FBF0F06421B0FBF1F26B
:1027900001FB12013F2001556420B6FBF0F100FB64
:1027A000116000F5FA60A4F83D0005B0BDE8F08FB7
:1027B0004750524D4300000000007042F8B50446F7
:1027C0000D4612A12846FDF7CFFE064607213046EA
:1027D000FFF7A4FD0746FF2F16D0F019694600F059
:1027E00024F8A4F867009DF8000003280CDA9DF88F
:1027F0000000C0F10300C1B20A2000F00BF8B4F8E9
:1028000067104843A4F86700F8BD000024475056FD
:102810005447000010B50246012000E050430B0071
:10282000A1F10104E1B2F9D110BD2DE9F34F81B05E
:1028300007463C460020009083468146002680469D
:1028400028E020782D2802D148F00208641C207866
:102850002C2802D020782A2800D11CE020782E28AD
:1028600003D148F00108641C09E02078392802DC13
:102870002078302803DA4FF0000900260BE008F03A
:10288000010010B1701CC6B203E009F1010000F0B4
:10289000FF09641CD5E700BF08F0020000B17F1CEF
:1028A00000250EE0A9F10100401BC1B20A20FFF78C
:1028B000B1FF795D3039009A00FB01200090681C5F
:1028C000C5B24D45EEDB052E00DD052602980670EB
:1028D00000250EE0701E401BC1B20A20FFF79AFFD0
:1028E00009F101012944795C303900FB01BB681C06
:1028F000C5B2B542EEDB31460A20FFF78BFF0099E7
:1029000001FB00BA08F0020008B1CAF1000A504603
:10291000BDE8FE8F70B5002100230F22C47804B3F8
:10292000154C246804F4E064C4F5E064210AC1F1A4
:102930000403CA40447804FA03F184781440214324
:1029400009010E4C0678A155047804F01F050124F6
:10295000AC4005786D11AD0005F1E025C5F80041EA
:1029600009E0047804F01F050124AC40044D06780A
:10297000761145F8264070BD0CED00E000E400E063
:1029800080E100E002490143024A11607047000003
:102990000000FA050CED00E010B5002000F001F891
:1029A00010BD70B50646002415E004F1B001C8B2B0
:1029B00001F0ACF9002001F0A9F9102001F0A6F90E
:1029C000002504E0304601F0B7F9681CC5B2802D3F
:1029D000F8DB601CC4B2082CE7DB70BD10B56420C6
:1029E00001F000FAAE2001F091F9202001F08EF9FB
:1029F000102001F08BF9B02001F088F9C82001F017
:102A000085F9002001F082F9102001F07FF94020C3
:102A100001F07CF9812001F079F9FF2001F076F9CD
:102A2000A12001F073F9A62001F070F9A82001F0AF
:102A30006DF93F2001F06AF9A42001F067F9D32075
:102A400001F064F9002001F061F9D52001F05EF990
:102A5000F02001F05BF9D92001F058F9222001F0B3
:102A600055F9DA2001F052F9122001F04FF9DB207C
:102A700001F04CF9202001F049F98D2001F046F9D0
:102A8000142001F043F9AF2001F040F910BD10B55A
:102A90008D2001F03BF9142001F038F9AF2001F04E
:102AA00035F910BD70B504460D4605F1B001C8B248
:102AB00001F02CF9102141EA141001F027F904F07B
:102AC0000F0141F0010001F021F970BD2DE9F04145
:102AD00080460E461546002731464046FFF7E2FF86
:102AE000002409E0114A02EB8511085D01F024F988
:102AF000781CC7B2601CC4B2102CF3DB701CC1B2CE
:102B00004046FFF7CFFF00240BE06900491C074A4D
:102B100002EB4111085D01F00FF9781CC7B2601C8F
:102B2000C4B2102CF1DBBDE8F0810000DC04002011
:102B30002DE9F0470646894617469A464FF00008A9
:102B400000240025BAF1010F03D0BAF1020F5ED1C3
:102B500025E020E0785D203800F0FF087E2E04DDBF
:102B6000002609F1010000F0FF0949463046FFF751
:102B700099FF002409E008EB4801264A02EB4101D5
:102B8000085D01F0D9F8601CC4B2062CF3DBB01D5F
:102B9000C6B2681CC5B2785D0028DBD137E032E0F0
:102BA000785D203800F0FF08782E04DD002609F15A
:102BB000010000F0FF0949463046FFF773FF00248B
:102BC00007E004EB0811144A505C01F0B5F8601CF2
:102BD000C4B2082CF5DB09F10100C1B23046FFF7A1
:102BE00061FF002408E004EB081108310A4A505C38
:102BF00001F0A2F8601CC4B2082CF4DB06F1080056
:102C0000C6B2681CC5B2785D0028C9D100BF00BF3C
:102C1000BDE8F087E25200080A550008014600208E
:102C2000034A506820F44040084350607047000059
:102C30000010024029B1064A52690243044B5A610E
:102C400004E0034A52698243014B5A617047000015
:102C50000010024029B1064AD2690243044BDA61EE
:102C600004E0034AD2698243014BDA6170470000F5
:102C70000010024029B1064A12690243044B1A614E
:102C800004E0034A12698243014B1A617047000055
:102C90000010024029B1064A92690243044B9A612E
:102CA00004E0034A92698243014B9A617047000035
:102CB0000010024029B1064AD2680243044BDA6090
:102CC00004E0034AD2688243014BDA607047000097
:102CD0000010024030B500210022002400232D4DB9
:102CE0006D6805F00C0121B1042905D0082923D114
:102CF00005E0294D056022E0274D05601FE0254DC8
:102D00006D6805F47012234D6D6805F4803402255A
:102D100005EB92421CB9214D554305600BE01D4D5A
:102D20006D6805F400351DB11C4D5543056002E08A
:102D3000194D5543056002E0174D056000BF00BF07
:102D4000144D6D6805F0F0010909154D6B5C0568BF
:102D5000DD4045600F4D6D6805F4E061090A104DD6
:102D60006B5C4568DD4085600A4D6D6805F4605117
:102D7000C90A0B4D6B5C4568DD40C560054D6D684B
:102D800005F44041890B074D6B5CC568B5FBF3F555
:102D9000056130BD0010024000127A0000093D00BC
:102DA000481F0020581F002008B54FF48050ADF890
:102DB000000003208DF8020048208DF803006946CA
:102DC0000148FEF73BFE08BD0008014008B54FF47E
:102DD0008050ADF8000003208DF8020010208DF81F
:102DE000030069460148FEF729FE08BD00080140BE
:102DF00010B500F001F810BD0CB500200190009056
:102E00003348006840F480303149086000BF3048E2
:102E1000006800F4003000900198401C0190009878
:102E200018B90198B0F5A06FF1D12948006800F4F5
:102E3000003010B10120009001E0002000900098C7
:102E4000012843D12348006840F010002149086060
:102E50000846006820F0030008600846006840F05B
:102E6000020008601A4840681949486008464068EE
:102E700048600846406840F4806048600846406802
:102E800020F47C1048600846406840F4E810486030
:102E90000846006840F08070086000BF0C48006879
:102EA00000F000700028F9D00948406820F00300C5
:102EB000074948600846406840F00200486000BF8B
:102EC0000348406800F00C000828F9D10CBD000050
:102ED000001002400020024010B558A1594800F0EF
:102EE000F7FE282258A1594800F0C8FF08B9002071
:102EF00010BD1E215548FDF755FB55A1514800F066
:102F0000E7FE282250A1514800F0B8FF08B9002080
:102F1000EEE71E214D48FDF745FB51A1494800F061
:102F2000D7FE01205349087000BF5248007800289E
:102F3000FBD1322244A1454800F0A0FF08B900208F
:102F4000D6E71E214148FDF72DFB4BA13D4800F07F
:102F5000BFFE28223CA13D4800F090FF08B90020A8
:102F6000C6E71E213948FDF71DFB4AA1354800F090
:102F7000AFFE282234A1354800F080FF08B90020B8
:102F8000B6E71E213148FDF70DFB46A12D4800F0A4
:102F90009FFE28222CA12D4800F070FF08B90020C8
:102FA000A6E71E212948FDF7FDFA44A1254800F0B7
:102FB0008FFE282224A1254800F060FF08B90020D8
:102FC00096E71E212148FDF7EDFA404801681D48AB
:102FD00000F07EFE11E03EA0FDF754F93B48016889
:102FE000184800F075FE3E480078401CC0B23C49CD
:102FF0000870052801D100207AE7282212A1134881
:1030000000F03CFF0028E6D00020354908700CE0B5
:103010002FA0FDF737F932480078401CC0B2304984
:103020000870052801D1002062E728222DA1074859
:1030300000F024FF0028EBD0012059E7415445302F
:103040000D0A0000004800404F4B0000D828002027
:1030500041542B434950534855540D0A0000000079
:1030600041542B4347434C4153533D2242220D0AC6
:1030700000000000281F002041542B434744434FC9
:103080004E543D312C224950222C22434D4E455462
:10309000220D0A0041542B43474154543D310D0A3F
:1030A0000000000041542B434950435347503D31E9
:1030B0002C22434D4E4554220D0A000041542B430F
:1030C0004950484541443D310D0A00002C1F002065
:1030D00053656E64206572726F720D0A0000000005
:1030E000301F0020434F4E4E454354204F4B0000AD
:1030F000042808D14FF0E021096941F004014FF0A4
:10310000E022116107E04FF0E021096921F004019C
:103110004FF0E0221161704710B51348006840F08D
:1031200001001149086008464068104908400E49EE
:103130004860084600680E4908400B490860084688
:10314000006820F4802008600846406820F4FE00F3
:1031500048604FF41F008860FFF74AFE4FF00060A0
:103160000449086010BD0000001002400000FFF894
:10317000FFFFF6FE08ED00E02DE9F0410121880790
:1031800000F055F900287DD00121880700F040F9B2
:103190005A480068401C59490860B0F57A7F09D147
:1031A000002008605648006808B9012000E00020AF
:1031B000534908605348007801280DD152480068EF
:1031C000401C5149086041F28831884204D10020F6
:1031D0004D4908604B4908704C48007801280AD1D5
:1031E0004B480068401C4A490860642803D100200D
:1031F00008604649087047480078B0B14648006802
:10320000401C45490860642812D1002008604348EA
:10321000006808B9012000E00020404908603D48EE
:103220000078401E3B49087002E000203B490860DE
:103230003B480068401C3A49086064285BD1002084
:1032400008603848007801283CD13748008801F0F0
:10325000F1FE80464FF08B4101F0F2FD0646334906
:1032600001F0FCFE05463248008801F0E3FE074607
:10327000294601F083FD044601F0A4FE2C49088094
:103280002C4800E037E00068401C2A4908600846E6
:1032900000680A2190FBF1F201FB120058BB26489E
:1032A000007840B124480078401E2349087002206D
:1032B000184908701FE020480078E0B90220194939
:1032C000087018E017480078022814D118480088C0
:1032D0001849096890FBF1F015490880032011494D
:1032E0000870FFF759FB1248018814A0FCF7CAFFC9
:1032F000002010490860BDE8F08100003000002087
:10330000B08121420100002040000020281F002041
:1033100044000020240000203400002080012142CD
:1033200038000020220000205A0000200000C8427F
:103330002C0000203C000020190000200D0A205421
:1033400068652063757272656E74204144207661F1
:103350006C7565203D2025642056200D0A00000074
:1033600010B50121084800F062F860B107480088F4
:1033700040F40040054908800121034800F048F866
:10338000002000F031F810BD00080040321F00207E
:103390007FB505460C4601210420FFF75BFCADF824
:1033A0000450ADF800400020ADF80600ADF8020072
:1033B00069460C4800F058F801221146094800F00F
:1033C00047F81E208DF80C0001208DF80D0002201A
:1033D0008DF80E0001208DF80F0003A8FFF79AFA70
:1033E0007FBD00000008004010B5044644B1002134
:1033F000064800F036F80121044800F00CF803E01C
:103400000021024800F007F810BD0000000800404D
:10341000CA430282704721B1028842F00102028051
:1034200004E002884FF6FE731A400280704730B500
:103430000246002000230024158A05EA010395892D
:1034400005EA010413B10CB1012000E0002030BDF9
:103450001AB183890B43838102E083898B43838183
:103460007047818470470000002202881D4B9842FB
:103470000ED01D4B98420BD0B0F1804F08D01B4BA3
:10348000984205D01A4B984202D01A4B984204D168
:103490004FF68F731A404B881A43174B984207D048
:1034A000164B984204D04FF6FF431A40CB881A437C
:1034B00002808B8883850B8803850A4B98420BD04A
:1034C000094B984208D00E4B984205D00D4B9842BC
:1034D00002D00D4B984201D10B7A038601238382DF
:1034E00070470000002C01400034014000040040FF
:1034F00000080040000C0040001000400014004094
:103500000040014000440140004801403EB50546EE
:103510000C4601210846FFF79DFB681E80B2ADF8FE
:103520000400601E80B2ADF800000020ADF8060077
:10353000ADF8020069464FF08040FFF795FF012289
:1035400011469007FFF784FF01218807FFF763FF0B
:103550003EBD70B58CB006460C46154601210846A6
:10356000FFF768FB3046FEF7A3F90194029510209F
:103570000390002004900590802006900020079082
:10358000089009904FF480500A9000200B9001A9F8
:103590003046FEF733FA0CB070BD70B504460D46E8
:1035A00000212046FEF778F929462046FEF744FA26
:1035B00001212046FEF770F970BD000010B540F201
:1035C0002551134800F089F908B3114800F040FA7A
:1035D000C4B210480088B0F5487F12DA00210E48C6
:1035E000FFF73FFF0B48008810B90120FFF7FCFEF2
:1035F000084801880088401C064A10800748445447
:1036000005E00448008840F400400249088010BDED
:1036100000380140321F002000080040C02900206F
:1036200010B586B0044601210420FFF733FB0121C9
:103630008803FFF72FFB2E4800F0F4F84FF40070DA
:10364000ADF8100003208DF8120018208DF813003B
:1036500004A92848FEF7F2F94FF48060ADF8100095
:1036600004208DF8130004A92248FEF7E7F900941E
:103670000020ADF80400ADF80600ADF80800ADF884
:103680000C000C20ADF80A006946194800F074F9E6
:1036900001228021164800F0BBF8174A1449091D81
:1036A0001648FFF756FF0121114800F0A5F8012246
:1036B00040F225510E4800F03AF925208DF814000B
:1036C00002208DF8150003208DF8160001208DF8DA
:1036D000170005A8FFF71EF941F61F416320FFF709
:1036E00057FE002006490880FFF77EFE06B010BD99
:1036F0000038014000080140F82800204400024042
:10370000321F002010B540F225511D4800F0E5F8A9
:1037100010B31B4800F09CF9C4B21A48008800F4AA
:103720000040C8B91748008800F4804060B10A2CF6
:1037300003D000201349088020E01248008840F49C
:1037400000401049088019E00D2C06D10D48008872
:1037500040F480400B49088010E00A480088C0F31C
:103760000D0009490C5407480088401C0549088091
:1037700008460088C72801DD0020088010BD000031
:1037800000440040500000201627002010B540F2F1
:103790002551144800F0A1F890B1124800F058F9F2
:1037A000C1B2114802780078401C0F4B18700F48C6
:1037B0008154184600781E2802D11D201946087031
:1037C00040F22441074800F088F848B1054800F06D
:1037D0003FF9064906A0FCF755FD00200249087094
:1037E00010BD00000048004058000020D8280020EC
:1037F00025730D0A0000000021B1828942F40052B5
:10380000828104E082894DF6FF731A4082817047FD
:103810001AB1838A0B43838202E0838A8B438382BB
:103820007047000010B504462048844209D10121A8
:103830008803FFF73FFA00214FF48040FFF73AFA80
:1038400032E01B48844209D101214804FFF712FAF3
:1038500000214FF40030FFF70DFA25E015488442AF
:1038600009D101218804FFF705FA00214FF48020D7
:10387000FFF700FA18E01048844209D10121C8047A
:10388000FFF7F8F900214FF40020FFF7F3F90BE000
:103890000A48844208D101210805FFF7EBF900210D
:1038A0004FF48010FFF7E6F910BD0000003801402A
:1038B0000044004000480040004C004000500040E0
:1038C00002460020B1F5007F00D100BF13880B40F5
:1038D0000BB1012000E00020704770B502460024C3
:1038E00000230025002040F66A16B14200D100BF37
:1038F000C1F3421501F01F03012606FA03F3012D5F
:1039000002D19689334006E0022D02D1168A334057
:1039100001E0968A33400C12012606FA04F4168858
:10392000344013B10CB1012000E0002070BDF0B5AF
:103930000346002400260025002040F66A17B942FD
:1039400000D100BF1846C1F3421401F01F06012741
:1039500007FA06F5012C01D10C3004E0022C01D14C
:10396000103000E014301AB107682F43076002E0FE
:103970000768AF430760F0BD2DE9F04786B0054604
:103980000E460024A24600BFA1460027B08900B120
:1039900000BF2F462C8A4CF6FF700440F088044389
:1039A0002C82AC894EF6F3100440B088318908436C
:1039B000718908430443AC81AC8A4FF6FF40044050
:1039C000B0890443AC8201A8FFF784F91F488742FD
:1039D00002D1DDF810A001E0DDF80CA0A88900F408
:1039E000004040B10AEBCA0000EB0A103168490000
:1039F000B0FBF1F807E00AEBCA0000EB0A103168EF
:103A00008900B0FBF1F86420B8FBF0F00401200954
:103A1000642101FB1089A88900F4004040B13220E4
:103A200000EBC900B0FBF1F000F00700044308E030
:103A3000322000EB09106421B0FBF1F000F00F0020
:103A400004432C8106B0BDE8F08700000038014037
:103A500001468888C0F308007047C1F308028280DD
:103A60007047000070B50025002604E0681C85B290
:103A7000052000F0B7F91548008800F4004008B9A7
:103A8000642DF3DBFA2D1BDA10480088C0F30E0515
:103A9000002406E00E48005DB52800D103E0601C5C
:103AA00084B2AC42F6DB00BFAC4201D1022608E092
:103AB0000749E01C085C08B9032602E0002600E084
:103AC0000126002001490880304670BD321F0020C9
:103AD000C029002070B51B4C46F2B520208040F66E
:103AE000061060800D20A0800020C4F806004FF66C
:103AF000FF70C4F80A000020C4F80E000420A0746F
:103B000004F114035A1E1121A01C00F0BDF800BFDF
:103B10000D48806C0028FBD115210B484430FFF77D
:103B20003CFD002505E0FFF79DFF00B903E0681CA0
:103B3000C5B2062DF7DB00BF062D01D1012070BDF7
:103B40000020FCE7F82800200000024070B5054680
:103B5000194C46F2B5202080062060801420A080F9
:103B60000120A0710020E07120814FF40D60C4F8A5
:103B70000A00C4F80E5007206082A0820020E08274
:103B8000208304F11B035A1E1821A01C00F07CF8AE
:103B900000BF0A48806C0028FBD11C210748443034
:103BA000FFF7FBFCC82000F01DF92846FFF738FDA1
:103BB000FFF758FF70BD0000F82800200000024009
:103BC00070B505460E46124CC82D01DA012070BDB5
:103BD00046F2B520208040F6060060800620A080D6
:103BE000E58001202081668104F10D035A1E0A211F
:103BF000A01C00F049F800BF0648806C0028FBD1EB
:103C00000E2104484430FFF7C8FCFFF72BFFDEE726
:103C1000F8280020000002402DE9F04105460E463C
:103C20001746174C46F2B520208040F2067060809F
:103C30001420A080C4F80650C4F80A60A7730020BE
:103C4000E073207460744FF44D7060820020A08295
:103C5000C4F8160004F11B035A1E1821A01C00F022
:103C600013F800BF0748806C0028FBD11C210548D1
:103C70004430FFF792FCFFF7F5FEBDE8F08100004D
:103C8000F82800200000024070B504460025157099
:103C90001D70002009E01578265C354415701D78EC
:103CA000167835441D70451CA8B28842F3DB70BD00
:103CB00070B504460D4629462046FFF7CEFE00BFEC
:103CC00080212046FFF7FCFD0028F9D070BD0000E0
:103CD00070B506460C46002521460AA0FCF7D2FA2C
:103CE00000BF615D3046FFF7E3FF6D1C605D00289B
:103CF000F7D100BF40213046FFF7E2FD0028F9D0A0
:103D000070BD000025730D0A0000000010B50446C8
:103D1000FEF794F97820FEF7EBF9FEF7C5F90020DD
:103D2000FEF7E6F9FEF7C0F92046FEF7E1F9FEF7E7
:103D3000BBF9FEF7A1F910BD10B50446FEF77EF9F8
:103D40007820FEF7D5F9FEF7AFF94020FEF7D0F95D
:103D5000FEF7AAF92046FEF7CBF9FEF7A5F9FEF724
:103D60008BF910BD490050EAC12018BF04204A0D4C
:103D700018BF40F0010040F2FF72B2EB515F08BF84
:103D800040F00200012808BF0520704730380A289B
:103D900001D20120704700207047014600BF7047E4
:103DA00010B56FF00400FFF7A3F90A4800680A494C
:103DB000B0FBF1F0094908700846007800EB4001BB
:103DC000C1EBC0104FF6FF7101EAC0000449088042
:103DD00010BD0000341F002000127A0048000020AF
:103DE0004A0000200146114A12884A434FF0E0235E
:103DF0005A6100229A611A46126942F001021A6160
:103E000000BF4FF0E022106900F001021AB100F487
:103E10008032002AF5D04FF0E022126922F0010230
:103E20004FF0E0231A6100229A6170474A00002097
:103E30000146114A12784A434FF0E0235A610022AA
:103E40009A611A46126942F001021A6100BF4FF0EE
:103E5000E022106900F001021AB100F48032002A59
:103E6000F5D04FF0E022126922F001024FF0E0237A
:103E70001A6100229A617047480000202DE9F04144
:103E800006460F46144625464FF0000807E001207D
:103E90000E49087000BF0D4800780028FBD1394654
:103EA0003046FCF761FB18B9681E80B20500EED100
:103EB00015B90020BDE8F0814FF00108B8F1000FFE
:103EC00001D00120F6E70020F4E70000281F0020C1
:103ED00000BF054A128802F04002002AF9D0C2B29F
:103EE000014B1B1D1A8070470044004010B52AA1E9
:103EF0002B48FFF7EDFE0A222AA12B48FFF7BEFF51
:103F0000B0B925A12648FFF7E3FE01202749087034
:103F100000BF264800780028FBD1282221A1224892
:103F2000FFF7ACFF20B922A0FCF7ACF9002010BDD0
:103F30001E211D48FCF736FB22A11948FFF7C8FED9
:103F400001201A49087000BF184800780028FBD1EA
:103F50001F49087010E01BA11148FFF7B9FE1DA012
:103F6000FCF790F91A480078401CC0B21849087054
:103F7000142801D10020DAE728221AA10A48FFF705
:103F80007DFF0028E7D01E210748FCF70BFB18A097
:103F9000FCF778F90120CAE741540D0A000000003F
:103FA000004800404F4B0000D8280020281F002068
:103FB0004154B2E2CAD4D6B8C1EEB4EDCEF30D0A84
:103FC0000000000041542B435245473F0D0A0000BA
:103FD000301F002053656E64206572726F720D0A87
:103FE000000000002B435245473A20302C3100009E
:103FF0007A687563652073756363657373206F6B8F
:104000000D0A000070B504460D4629462046FDF70E
:10401000A0FD40B900BF29462046FDF79AFD0028C3
:10402000F9D0002070BD0120FCE7000008B5FFF7C3
:10403000B7FE4FF4E13000F0CDFD4FF4165000F024
:1040400009FE4FF41640FFF7EBFAFEF737F9482167
:104050004FF47A70FFF75AFAFDF7D0FBFDF7D8FF5F
:10406000FEF7BCFCFEF772F800F066FDFDA0FCF761
:1040700009F9FEF70CFDFEF78FFCFEF78DFCFEF74D
:104080008BFC002202211046FEF720FD01220221B6
:104090001020FEF71BFD022211462020FEF716FD20
:1040A000032202213020FEF711FD042202214020CC
:1040B000FEF70CFD052202215020FEF707FD062227
:1040C00002216020FEF702FDF2A0FCF7DBF8FFF70B
:1040D0000DFF10B1FAA0FCF7D5F8FEF7FDFE10B108
:1040E000FCA0FCF7CFF80120FE490870FDF7C2FDE7
:1040F00041F28830FFF776FEFEF74EFCFAA1FC484D
:10410000FCF7CCF80223FA4A19461920FEF710FDF5
:104110004FF4FA60FFF766FEFEF73EFC0420F54917
:104120000870B3E2F4480078002859D10722022130
:10413000FEF7CCFC082202211020FEF7C7FCEFA1FD
:10414000EB48FCF7ABF80223E94A19462320FEF7B7
:10415000EFFC092202212D20FEF7B8FC0A220221E1
:104160003D20FEF7B3FC0B2202214D20FEF7AEFCF2
:104170000C2202215D20FEF7A9FC0D2202216D20F8
:10418000FEF7A4FC252204210020FEF79FFC262236
:1041900004211020FEF79AFCD9A1D548FCF77EF83F
:1041A0000223D34A04212320FEF7C2FC2722042144
:1041B0002D20FEF78BFC282204213D20FEF786FCF3
:1041C000292204214D20FEF781FC2A2204215D20B2
:1041D000FEF77CFC2B2204216D20FEF777FC45E2E4
:1041E000C548007801282AD1552202210020FEF777
:1041F0006DFC562202211020FEF768FC5722022196
:104200002020FEF763FC582202213020FEF75EFCDE
:10421000592202214020FEF759FCBA480278BAA17F
:10422000B348FCF73BF80223B14A19465A20FEF77F
:104230007FFC122202216920FEF748FC16E2AE48FC
:104240000078032871D1132200212020FEF73EFCC4
:10425000142200213020FEF739FC152200214020D5
:10426000FEF734FC162200215020FEF72FFC1B2203
:1042700002211020FEF72AFC1C2202212020FEF73A
:1042800025FC1E2202213020FEF720FC1F220221E5
:104290004020FEF71BFC222202215020FEF716FCD4
:1042A0009A48028898A19248FBF7F8FF0223904AA7
:1042B00019466020FEF73CFC944800889449097830
:1042C000884221DD02208B49087019220421002038
:1042D000FEF7FCFB1A2204211020FEF7F7FB372221
:1042E00004214020FEF7F2FB382204215020FEF783
:1042F000EDFB88A17E48FBF7D1FF02237C4A042115
:104300006920FEF715FCB1E1172204212020FEF7F9
:10431000DDFB192204213020FEF7D8FB1A220421EC
:104320004020FEF7D3FBA1E1FFE7734800780428A3
:104330006FD12E2200210846FEF7C8FB2F22002154
:104340001020FEF7C3FB302200212020FEF7BEFB29
:10435000312200213020FEF7B9FB3222002140201B
:10436000FEF7B4FB6CA16248FBF798FF0223604A9A
:1043700000215020FEF7DCFB2E2202210020FEF758
:10438000A5FB2F2202211020FEF7A0FB64A15848B4
:10439000FBF784FF0223564A19462020FEF7C8FB8C
:1043A000332204210020FEF791FB34220421102047
:1043B000FEF78CFB57A14E48FBF770FF02234C4AD7
:1043C00004211E20FEF7B4FB352204215020FEF705
:1043D0007DFB362204216020FEF778FB51A1444882
:1043E000FBF75CFF0223424A04216E20FEF7A0FB8C
:1043F0004D48008801280DD14C48027842A13C4824
:10440000FBF74CFF02233A4A19463020FEF790FB97
:104410002CE110E044480088022884D143484278C7
:1044200039A13348FBF73AFF0223314A19463C20B1
:10443000FEF77EFB1AE130480078052878D13A2251
:1044400000210846FEF742FB3B2200211020FEF728
:104450003DFB3C2200212020FEF738FB3D220021BD
:10446000302066E07E7E7E7E7E7E7E7E7E7E7E7ECE
:104470007E7E55534152543220435055205374612F
:1044800072747E7E7E7E7E7E7E7E7E7E7E7E7E7E62
:104490007E0D0A007E7E7E7E7E7E7E7E7E7E7E7E9F
:1044A0007E7E4E424C4F5420494E49547E7E7E7E45
:1044B0007E7E7E7E7E7E7E7E7E7E7E0D0A0000007B
:1044C0006E626C6F745F696E6974206F6B210D0A88
:1044D00000000000536572766572206F6B210D0A33
:1044E00000000000000000204F4B2E2E2E00000088
:1044F000722500202400002022000020440000003B
:104500004300000019000020256400002C0000205A
:104510001A0000203A41000031302D3939000000E6
:104520003A0000003A4200001E0000201B0000205C
:1045300040E0FEF7CBFA3E2200214020FEF7C6FA0B
:104540003F2200215020FEF7C1FA402200216020C6
:10455000FEF7BCFA412200217020FEF7B7FA512283
:1045600005211E20FEF7B2FA522205212E20FEF769
:10457000ADFAAFF26001FA48FBF790FE0223F84A69
:1045800005213C20FEF7D4FA532205215020FEF7E6
:104590009DFA542205216020FEF798FAAFF27C01C3
:1045A000EF48FBF77BFE0223ED4A05216E20FEF764
:1045B000BFFA5BE0EB480078062857D15A22002169
:1045C0000846FEF783FA5B2200211020FEF77EFAF0
:1045D0005C2200212020FEF779FA5D2200213020A4
:1045E000FEF774FA5E2200214020FEF76FFA5F2288
:1045F00000215020FEF76AFA602202210020FEF717
:1046000065FA612202211020FEF760FA622202217F
:104610002020FEF75BFA632202213020FEF756FAD3
:10462000642202214020FEF751FA65220421002075
:10463000FEF74CFA662204211020FEF747FA6722A3
:1046400004212020FEF742FA682204213020FEF7E0
:104650003DFA0120C449087000BFC3480078012812
:10466000FBD0FEF799F90020BE490870FDF7A2FDC6
:104670000446442C0BD1BB48007828B90120B94925
:1046800008700520B9490870FEF786F939E22A2C2E
:104690000DD1FEF781F90020B2490870B4490880B5
:1046A000B4490880B4490880FEF776F929E2432C22
:1046B0000ED1AC4800780028E8D1FEF76DF904204F
:1046C000A84908700020AA490880AA49088018E271
:1046D000412C7DD1A3480078042844D1A7484078D4
:1046E000A649097801EB810100EB41000A2819DB9A
:1046F000A2484078A149097801EB810100EB410013
:1047000064280FDA9D4840789C49097801EB8101C3
:1047100000EB41009A490870002092490870FEF7AA
:104720003BF9EEE1002095490870487090490880F7
:1047300090490880AFF268218948FBF7AFFD02235A
:10474000874A19463020FEF7F3F9AFF27C218448FE
:10475000FBF7A4FD0223824A19463C20FEF7E8F944
:10476000FEF71AF9CDE17F480078032810D182487E
:10477000008883490978884288DDFEF70DF9052015
:104780007849087000207A4908807A490880B8E1A1
:1047900074480078052889D1FEF7FEF84D220221E1
:1047A0001020FEF793F94E2202212020FEF78EF909
:1047B0004F2202213020FEF789F9502202214020A9
:1047C000FEF784F964216F48FBF7ECFEC82100E096
:1047D00086E06348FBF7E6FEFDF796FA6A4890F834
:1047E0004E0000284EDD64480388684A68A15C4892
:1047F000FBF754FD6449D1F8490000F01BFC664901
:10480000086066496448006800F01AFB6249054682
:10481000086000F087FA06465B4890F84D00324683
:104820000B465FA100905748FBF738FD634964A031
:10483000FBF728FD53494A48FBF7A8FE5249486C4C
:1048400000F0F8FB5449086054495348006800F0F0
:10485000F7FA51490546086000F064FA06464A48EE
:1048600090F8480032460B4657A100904548FBF7A8
:1048700015FD524952A0FBF705FD42493848FBF7A8
:1048800085FE06E03C480388404A56A13448FBF7C1
:1048900005FD334956A0FBF7F5FC1E215948FBF7EF
:1048A00081FE2F48FDF762F910B906202D490870E6
:1048B0002C480078062812D053A0FBF7E3FC062012
:1048C0005449087014213148FBF76CFE002025493B
:1048D00008702749088027490880FEF75DF810E135
:1048E000422C3CD11F48007804280BD100201D49E0
:1048F0000870FEF751F800202049087048701C49E4
:104900000880FEE0174800780528E8D10020194902
:10491000088014E0AFF248411148FBF7BFFC15498D
:104920000978302202EBC101C8B202230C4A1946B1
:10493000FEF7FEF80F480088401C0E4908800D481D
:1049400000880A28E6DBFEF727F8002008490880DF
:104950000849088014210D48FBF724FED1E05BE0F4
:1049600072250020220000200100002019000020F4
:104970001E000020200000202C0000201B00002032
:104980001A0000203A2600205C1F00200227002089
:104990003A25733A25640000140000200050C347F4
:1049A0002C204C6F6E676974756465206973203DB7
:1049B00020252E356620253163200000C81F0020E9
:1049C0002573090D0A000000204C61746974756438
:1049D00065206973203D20252E3566202531632012
:1049E0000D0A00003A25733A25643A303A30000047
:1049F0006361696A6920737472696E67203D20255E
:104A0000730D0A00D828002053656E64206F6B0D6B
:104A10000A000000240000203B480078042819D137
:104A2000262C17D0412C15D0422C13D0432C11D05A
:104A3000442C0FD0232C0DD02A2C0BD0A4F1300005
:104A40003249334A1288885431480088401C304922
:104A5000088056E02C480078052852D1262C50D0EA
:104A6000412C4ED0422C4CD0432C4AD0442C48D020
:104A7000232C46D02A2C44D0264800880E2817DA4A
:104A8000224625A12548FBF709FC22490978C906D9
:104A9000080E0223214A1946FEF74AF81D480088ED
:104AA000401C1C4908801E481949098844541BE0D1
:104AB000184800880E2817DB224617A11748FBF775
:104AC000EDFB144909780E39C906080E0223134A72
:104AD0000521FEF72DF80F480088401C0D4908807D
:104AE0000F480B490988445409480088401C08496C
:104AF000088000200A49064A1288885409A0FBF75A
:104B0000C1FBFFF70FBB0000220000201B000020AC
:104B10001E000020200000202563000072250020D8
:104B2000022700205368616E675F427566203D2052
:104B300025730D0A0000000008B54FF4C060FDF7B2
:104B400021FF1C208DF8000000208DF801000120BD
:104B50008DF802008DF803006846FDF7DBFE252086
:104B60008DF8000000208DF8010003208DF8020070
:104B700001208DF803006846FDF7CCFE26208DF855
:104B8000000001208DF8010004208DF802000120B2
:104B90008DF803006846FDF7BDFE27208DF8000064
:104BA00000208DF801008DF8020001208DF803002F
:104BB0006846FDF7AFFE12208DF8000001208DF849
:104BC00001008DF802008DF803006846FDF7A2FE93
:104BD00008BD000010B586B0044601210420FEF790
:104BE00059F801214804FEF735F80420ADF8140007
:104BF00003208DF8160018208DF8170005A913481A
:104C0000FCF71CFF0820ADF8140004208DF81700F5
:104C100001940020ADF80800ADF80A00ADF80C00D2
:104C2000ADF810000C20ADF80E0001A90848FEF701
:104C3000A3FE012240F225510548FEF778FE01212E
:104C40000348FEF7D9FD06B010BD00000008014082
:104C50000044004010B586B0044601210820FEF74C
:104C600019F801218804FDF7F5FF4FF48060ADF8D5
:104C7000140003208DF8160018208DF8170005A9E0
:104C80001848FCF7DBFE4FF40060ADF81400042078
:104C90008DF8170005A91348FCF7D0FE01940020F9
:104CA000ADF80800ADF80A00ADF80C00ADF8100042
:104CB0000C20ADF80E0001A90B48FEF75DFE0122A5
:104CC00040F225510848FEF732FE012240F224410D
:104CD0000548FEF72CFE01210348FEF78DFD06B0C6
:104CE00010BD0000000C01400048004010B5002934
:104CF0000AD00878002807D005487844FCF778F8EF
:104D0000002801D0002010BD0248784410BD0000EA
:104D10000A0F0000020F00000808A0F500114FEA7A
:104D20003101704743004FEAD30C4FEA3C0C43403B
:104D30001FBF40070CF1605113F0FE4F70471CF08D
:104D4000006F03D100200CF0004170470CF00043CD
:104D500043EA507010B540EACC0000F000FA00BF02
:104D6000000000924FEA0001FFF7D6BF4FF000416C
:104D70004FF00000A1F500217047000090EA010FFC
:104D800048BF81F0004100F13C82421A3CBF801ACA
:104D900089184FEAD0524FF07F4C1CEA410FA2EB2A
:104DA000D15318BF9CEA026F00F03B804FF0004CDB
:104DB0004CEA00204CEA012121FA03FC10EB0C0C18
:104DC0001ED202F1FF325FEA1C2040EBC25038BF16
:104DD00070471CF07F0F4FEA400C18BFBCF17F4FAB
:104DE00038BF7047C3F12003994008BF20F001008D
:104DF000BCF17F4F38BF7047A0F1C04000F0F5B95B
:104E00004FEA3C00000A40EBC25028BF1CF0FF0FE5
:104E10004FEA400CE6D018BFBCF17F4F38BF704757
:104E2000EAE79CEA026F05D010EA5C0F08BF00F0C9
:104E30000040704710B500F092F900BF64FBBE3E21
:104E40004FF47F0C1CEAD0121EBF1CEAD11392EA69
:104E50000C0F93EA0C0F00F0858090EA010F48BF19
:104E600042F4807240F4000C41F400002CF07F41C9
:104E700020F07F4000B58142A2EB03020FF2081C34
:104E8000ACEB504EC0F100009EF800E04FEA4E0E31
:104E900000FB0EFC38BF49004FEA2C1C02F5FA0259
:104EA0000CFB0EF34FEACE1E4FEA112C4FEAC12144
:104EB0000EEB635E42EB22420EFB0CFC4FEA1C53EE
:104EC00000FB03114FEA112C4FEA01310EFB0CFCE1
:104ED0004FEADC4C00FB0C11C14228BF09184CEB17
:104EE00003335DF804EB10EB410143EBC250B2F524
:104EF0007C0F38BF704729D512F0F00F1CBF00F1AE
:104F0000C04000F00040704700818283848586871E
:104F100088898B8C8D8E8F919293959697999A9C78
:104F20009D9FA0A2A3A5A7A8AAACAEB0B2B3B5B7E7
:104F3000B9BCBEC0C2C5C7C9CCCED1D4D7D9DCDFBD
:104F4000E2E6E9ECF0F3F7FAFE0000004FEA400C6D
:104F50000CF1807CBCF17E4F28BF7047B0F1C0409F
:104F600000F043B990EA010F0CEAD11348BF42F4B4
:104F70008072624538BF634507D213F47F0F16D0A5
:104F800080EA010000F00040704710B500F0E7F83B
:104F9000097EFC3E00F005B880EA010000F0004008
:104FA000704780EA010000F0004000F01EB912F4E2
:104FB0007F0F04BF0248704780EA010000F015B976
:104FC0000000C07FC10DD1F19E0206DB4FEA002335
:104FD00043F0004323FA02F07047004207D54FEA3E
:104FE0004001B1F1FE4F02D24FF00000704710B502
:104FF00000F0B5F849922480002070476FEA200045
:105000007047000010F0004148BF4042B0FA80F302
:1050100010FA03F2C3F19D030BD051EAC35101EB27
:105020001220530638BF704700F1010008BF20F07E
:1050300001007047B0FA80F310FA03F2C3F19D0348
:105040000AD0D90501EB1220530638BF704700F192
:10505000010008BF20F00100704700004FF47F0CF2
:105060001CEAD0121EBF1CEAD11392EA0C0F93EA7D
:105070000C0F00F0478090EA010F48BF42F48072A5
:105080004FF0004C4CEA00204CEA012102EB0302F5
:10509000A0FB0113A2F50002002918BF43F0010391
:1050A0005B0028BF4FEA330342EB22425FEA132C36
:1050B0004CEBC2502EBFBCEB436FB2F57C0F704778
:1050C0004FEA036CBCF1004F08BF20F00100B2F5BD
:1050D0007C0F38BF70470BD582F0FF0212F5803F7E
:1050E000C8BF704700F1C040D8BF00F00040704713
:1050F00000F5000C5FEA4C0C48BF7047B0F1C040AF
:1051000000F073B890EA010F0CEAD11348BF42F4E3
:105110008072624538BF634504D280EA010000F026
:105120000040704710B500F01AF800BF8900013E3A
:1051300000F007B800F009B85FEA410C5FEA1C6CA8
:1051400008D080EA010000F050B85FEA400C5FEA46
:105150001C6CF6D14FF00040A0F5800070470EF1B6
:10516000020E2EF0030E5EF8044B244204D44FEAE4
:105170004102B2F17F4F11D84FEA4003B3F17F4FA4
:105180000CD80ED14FEAD07CB2F17F4F0CEB4C0C17
:105190000CF1020C08BF4CEBD17C04E04FF0080C82
:1051A00001E04FEAD17C0CEB4C0324FA03F404F049
:1051B0000704B4F1040C06D20EEB840CBDE81040D9
:1051C0004CF0010C6047DFE80CF0070802024FF0DA
:1051D0000040A0F5800010BD0846420018BFD2F183
:1051E000807288BF00F0004010BDFF2141EAD0501E
:1051F000C005704790EA010F48BF81F000413FF5BC
:10520000C4AD421A04D882F00042A0EB020011445F
:105210004FEAD0524FF07F4C1CEA410FA2EBD15322
:1052200018BF9CEA026F4AD04FF0004C4CEA0020B5
:105230004CEA012121FA03FCB0EB0C0C0FD412F064
:10524000FE0F36D05FEA4C001DD5001240EBC25075
:1052500038BF70471CF03F0F18BF70470BE0A2F13A
:1052600001025FEA1C2040EBC25038BF70471CF0BF
:105270007F0F18BF7047C3F12003994014BF401E31
:1052800020F00100704780084FEA122308BF7047E2
:10529000B0FA80FCA2EB0C02CCF1280C60FA0CF006
:1052A00093EA122F04BF00EBC25070474FEAC3705D
:1052B0007047130A5FEADC1008BF7047F6E79CEA04
:1052C000026F04D010EA5C0F08BF0020704710B5D1
:1052D000FFF745FF40DFF63E81F000407047FBF7E7
:1052E000DEBA0000000000000000002F00000000F7
:1052F0000700070000147F147F1400242A7F2A125D
:10530000006264081323003649552250000005034B
:10531000000000001C224100000041221C0000147B
:10532000083E08140008083E0808000000A06000BD
:10533000000808080808000060600000002010084D
:105340000402003E5149453E0000427F40000042B9
:1053500061514946002141454B31001814127F101C
:10536000002745454539003C4A494930000171094B
:10537000050300364949493600064949291E0000FF
:1053800036360000000056360000000814224100A6
:1053900000141414141400004122140800020151D6
:1053A000090600324959513E007C1211127C007FDF
:1053B00049494936003E41414122007F4141221C7A
:1053C000007F49494941007F09090901003E4149DF
:1053D000497A007F0808087F0000417F41000020D3
:1053E00040413F01007F08142241007F404040407F
:1053F000007F020C027F007F0408107F003E4141C5
:10540000413E007F09090906003E4151215E007FAF
:10541000091929460046494949310001017F010126
:10542000003F4040403F001F2040201F003F4038C9
:10543000403F006314081463000708700807006108
:105440005149454300007F41410000552A552A55E6
:10545000000041417F00000402010204004040407E
:105460004040000001020400002054545478007FA2
:105470004844443800384444442000384444487F79
:1054800000385454541800087E0901020018A4A4DE
:10549000A47C007F080404780000447D40000040A4
:1054A00080847D00007F102844000000417F400080
:1054B000007C04180478007C080404780038444414
:1054C000443800FC242424180018242418FC007CF0
:1054D0000804040800485454542000043F44402069
:1054E000003C4040207C001C2040201C003C403000
:1054F000403C004428102844001CA0A0A07C00448C
:1055000064544C44141414141414000000000000DB
:1055100000000000000000000000000000F8000093
:105520000000000000333000000000100C06100CDA
:105530000600000000000000000040C07840C07875
:105540004000043F04043F040400007088FC08305D
:105550000000001820FF211E0000F008F000E018F5
:10556000000000211C031E211E0000F008887000AE
:1055700000001E2123241927211010160E00000000
:1055800000000000000000000000000000E018041F
:105590000200000000071820400000020418E0008C
:1055A00000000040201807000000404080F08040CC
:1055B00040000202010F01020200000000F00000A2
:1055C00000000101011F01010100000000000000B6
:1055D000000080B07000000000000000000000002B
:1055E00000000001010101010101000000000000B4
:1055F000000000303000000000000000000080606B
:105600001804006018060100000000E010080810EF
:10561000E000000F102020100F00001010F8000014
:1056200000000020203F20200000007008080888AB
:10563000700000302824222130000030088888487B
:1056400030000018202020110E000000C02010F8AB
:10565000000000070424243F240000F8088888087C
:1056600008000019212020110E0000E01088881881
:105670000000000F112020110E0000380808C83863
:1056800008000000003F0000000000708808088843
:105690007000001C222121221C0000E010080810CC
:1056A000E0000000312222110F00000000C0C00005
:1056B000000000000030300000000000008000000A
:1056C000000000008060000000000000804020100A
:1056D0000800000102040810200040404040404003
:1056E0004000040404040404040000081020408066
:1056F000000000201008040201000070480808089B
:10570000F0000000003036010000C030C828E8106A
:10571000E0000718272423140B000000C038E00025
:105720000000203C23020227382008F8888888706F
:105730000000203F202020110E00C030080808087B
:105740003800071820202010080008F80808081062
:10575000E000203F202020100F0008F88888E8088B
:105760001000203F20202320180008F88888E8082F
:105770001000203F200003000000C0300808083857
:10578000000007182020221E020008F80800000868
:10579000F808203F210101213F20000808F80808EF
:1057A00000000020203F2020000000000808F8082A
:1057B0000800C08080807F00000008F888C028189A
:1057C0000800203F20012638200008F808000000CB
:1057D0000000203F20202020300008F8F800F8F8D2
:1057E0000800203F003F003F200008F830C00008BC
:1057F000F808203F200007183F00E01008080810B4
:10580000E0000F10202020100F0008F808080808FA
:10581000F000203F210101010000E01008080810FD
:10582000E0000F18242438504F0008F88888888832
:105830007000203F2000030C30200070880808080A
:1058400038000038202121221C00180808F8080818
:1058500018000000203F2000000008F808000008A1
:10586000F808001F202020201F000878880000C8AA
:105870003808000007380E010000F80800F800089A
:10588000F800033C0700073C0300081868808068A4
:10589000180820302C03032C30200838C800C838E2
:1058A00008000000203F2000000010080808C83849
:1058B00008002038262120201800000000FE0202E7
:1058C00002000000007F40404000000C30C000009B
:1058D0000000000000010638C00000020202FE00C5
:1058E0000000004040407F0000000000040202026F
:1058F00004000000000000000000000000000000A4
:10590000000080808080808080800002020400008F
:105910000000000000000000000000008080808087
:1059200000000019242222223F2008F80080800075
:105930000000003F112020110E0000000080808038
:105940000000000E1120202011000000008080883F
:10595000F800000E112020103F2000008080808081
:105960000000001F222222221300008080F088887D
:1059700088180020203F20200000000080808080C8
:105980008000006B94949493600008F800808080FD
:105990000000203F210000203F2000809898000058
:1059A00000000020203F2020000000000080989888
:1059B000000000C08080807F000008F80000808028
:1059C0008000203F24022D302000000808F800004D
:1059D00000000020203F2020000080808080808008
:1059E0008000203F20003F20003F8080008080809A
:1059F0000000203F210000203F20000080808080A8
:105A00000000001F202020201F00808000808000D8
:105A1000000080FFA12020110E0000000080808087
:105A20008000000E112020A0FF80808080008080F8
:105A3000800020203F212000010000008080808025
:105A400080000033242424241900008080E080801A
:105A500000000000001F2020000080800000008067
:105A60008000001F202020103F20808080000080C8
:105A7000808000010E3008060100808000800080D8
:105A800080800F300C030C300F000080800080807D
:105A900080000020312E0E312000808080000080A8
:105AA000808080818E701806010000808080808058
:105AB00080000021302C2221300000000000807C7A
:105AC000020200000000003F404000000000FF0014
:105AD000000000000000FF0000000002027C8000C7
